:020000040000FA
:020000006A286C
:0800080096283520031C0A288C
:100010000B200314080082070134023403340F3428
:100020000434053406340E340734083409340D34EE
:100030000A3400340B340C34831605108610061174
:100040008611061686160617861781138312051069
:10005000861006118611F03086006400D42606084A
:10006000F039F03C031D2D280800C801FE30C900FE
:1000700005104918051449088600061E5228C80AAA
:10008000861E5228C80A061F5228C80A861F5228F0
:10009000C80A0F304802031850280314C90D382825
:1000A0000310542848080314080064000520031CAA
:1000B0005528CA0027204A080800013ECB005520D9
:1000C000CA000C3C03196A284B084A0203185F282F
:1000D0004A0808008A150A12B4228A0107101C2057
:1000E000831607309F000117811501148114011533
:1000F00006148510071087108312AC2552275B2742
:10010000DF1F87287827FD3097270301A82787144A
:100110008A150A12B4228A01392198308B000710FF
:100120001430B800C201F92563009428A300030E1F
:10013000A2008B1839218B1823250B18A628220E14
:100140008300A30E230E0B108B1009000520C7009F
:1001500087141430B80047080C3C0319BD28470821
:100160000B3C031D31290714AC25A726D723D02625
:1001700027200710AC25A72631292720AC25A72644
:10018000FD3097279D27BF003F1CE928A726C223E3
:10019000EF25FF30BE009A25BA00BA0E2A30062697
:1001A0009A25BA072A3006269A25BB00BB0E2A30AC
:1001B00006269A25BB072A300626FE3097279D275C
:1001C0003A02031D3129FF3097279D273B02031D6B
:1001D0003129A7264D300626453006264E30062604
:1001E000553006260A30F125003006260130062655
:1001F0000230062603300626043006260530062681
:10020000A001AD245520A1000D3C03198D23210828
:100210000E3C0319932321080C3C031931292108B2
:100220000F3C03191629AD242720022920080319A1
:10023000B8212008013C03193F222008023C8A15FE
:100240000A12031937228A150A122008033C0319DF
:100250001E218A018A150A122008043C0319D021A4
:100260008A01F925A7268A150A12B4228A013921A2
:100270009F288316403081068312B8030319871024
:100280005B275D08B9005D08113C2410031C241491
:10029000A4105D08203C0319A4145D08213C031937
:1002A000A4145D08123C2411031C2415ED25123002
:1002B000A41818302419DD025D080319123E3726F0
:1002C0000830A4063A30A4193A3006265E083F26C4
:1002D0003A3006265F083F26413024185030062663
:1002E0004D300626203006262D30062620300626E4
:1002F0005C08F324EF2550300626523006264F3096
:100300000626583006267E300626B108031D8A29A7
:10031000EA23B5292808113CA412031CA4162413AF
:100320002808203C031924172808213C0319241706
:100330002808123CA413031CA4171230241B1830E5
:10034000A41B2802A41F28080319123E37263A309E
:10035000062629083F264130A41A503006264D3083
:1003600006262D3006262A08F3243908DD00080069
:10037000A7263921ED25F72501305D204426DD0033
:10038000DD0E09305D2044260F39DD073A300626A0
:1003900005305D204426DE00DE0E09305D20442657
:1003A0000F39DE073A30062605305D204426DF008F
:1003B000DF0E09305D2044260F39DF070830F125B4
:1003C00041302418503006264D3006260830F125DD
:1003D0005520A1000D3C01300319A40621080E3C54
:1003E00001300319A40621080F3C031DDE295D0816
:1003F000123C031D002A1230DD00241CDD010E2AF0
:10040000A4105D08093C0319A4145D08083C0319F5
:10041000A4141230A41818302418DD070130DB00B2
:100420000130DA000130D9000B30F1252D300626DD
:10043000203006265C08F3240D30F1255520A1005C
:100440000D3C0319302221080E3C031936222108E5
:100450000F3C031D142A64008227F925640008005C
:10046000DC0A08305C0203193C220800DC03031D8F
:1004700008000730DC0008000130DC000800AB0198
:10048000AB0AA726ED25F72519242B0844260830AA
:10049000F1255520A1000D3C0319572221080E3CDF
:1004A00003195D2221080F3C031D412A652AAB0A6E
:1004B00005302B02031962220800AB0B0800043040
:1004C000AB000800AB01AB0A0800F925A501A50A9D
:1004D000A726ED252A2425088A150A1200218A015B
:1004E0003F262D300626483006262B0844262B08AA
:1004F000A7002508A600A70B7E2A812A1E30A60782
:100500007B2A26080310260D97279D27AE003F392A
:10051000A8000310260D013E97279D27AD007F39C7
:10052000A9002E081125AE00EF252808113C241043
:10053000031C2414A4102808203C0319A414280820
:10054000213C0319A4142808123C2411031C24156F
:100550001230A41818302419A80228080319123ED2
:1005600037263A30062629083F26413024185030D5
:1005700006264D300626203006267D23203006260E
:10058000AD1B1224AD1F0B245520A1000D3C0319F7
:10059000602321080E3C0319662321080F3C031930
:1005A000D62221080C3C031D682A0800EF25F725F8
:1005B00001305D204426A800A80E09305D204426A5
:1005C0000F39A8073A30062605305D204426A900D9
:1005D000A90E09305D2044260F39A9070530F325FF
:1005E00041302418503006264D3006260530F325BC
:1005F0005520A1000D3C01300319A40621080E3C32
:1006000001300319A40621080F3C031DEE2A073010
:10061000F325203006260830F3257D230830F32506
:100620005520A1000D3C03196F2321080E3C03192E
:10063000752321080F3C031D0B2B0C30F325AD1B3C
:100640001224AD1F0B240C30F3255520A1000D3CC6
:1006500080300319AD0621080E3C80300319AD0629
:1006600021080F3C031D1D2B2808123C031D3D2BA8
:100670001230A800241CA8014B2BA4102808093C08
:100680000319A4142808083C0319A4141230A41850
:1006900018302418A80726080310260D97273F3086
:1006A000A8052E081A252807A8270310260D013EA5
:1006B000972729087F39AD1B803EA827F925080018
:1006C000A50A1F30250203196C230800A503031D8A
:1006D00008001E30A50008000130A5000800AE0A81
:1006E00004302E020319AE010800AE03FF302E02C3
:1006F000031D08000330AE0008002E080319EF2385
:100700002E08013C0319F6232E08023C0319FD2391
:100710002E08033C031904240800A00A0530200217
:100720000319A0010800A003FF302002031D0800E8
:100730000430A0000800EF252A26EF2544300626C5
:100740007530062672300626613006262E300626C3
:100750002030062654300626693006266D300626DF
:100760006230062672300626653006267330080091
:10077000533006264930062608004E3006264F30F4
:1007800006260800433006266F3006266E30062601
:10079000743006267230062661300626733006262F
:1007A00065300626F1300626613006260800053041
:1007B000F3252030062652300626493006264E30D4
:1007C000062647300626213006262130062604302C
:1007D000312608000530F3250B3031260800313072
:1007E00006265430062643300626080031300626F9
:1007F000543006264C300626080032300626543087
:1008000006264330062608003330062654300626D6
:100810004330062608004F3006264630062646306E
:10082000062608004F3006264E30062620300626C3
:100830000800483006266F300626723006266130E2
:10084000062672300626693006266F3006263A30B4
:1008500006260800413006266C3006266130062642
:10086000723006266D3006266130062620300626B8
:100870004E3006266F3006263A30062608005630DF
:1008800006263A30062630300626363006262F3029
:10089000062631300626323006260800EF252A26A5
:1008A000EF2546300626693006266A300626613076
:1008B000062672300626203006265230062665307F
:1008C00006266C3006266F3006266A30062608009B
:1008D000EF252A26EF2546300626693006266A309F
:1008E0000626613006267230062620300626413064
:1008F00006266C30062661300626723006266D30DC
:10090000062661300626733006260800EF252A26C3
:10091000EF255430062669300626703006266F30E3
:10092000062620300626643006266530062620304E
:100930000626683006266F3006267230062661309D
:10094000062672300626693006266F300626080015
:10095000EF252A26EF25C2230800200803194E2C74
:100960002008013C0319682C2008023C0319862C3E
:100970002008033C0319A82C2008043C03199B2BD6
:10098000200808004C300626553006264E30062634
:1009900008004D3006264130062652300626080053
:1009A0004D300626493006264530062608004A30D6
:1009B00006265530062645300626080056300626FF
:1009C00049300626453006260800533006264130B9
:1009D0000626423006260800443006264F300626FA
:1009E0004D3006260800C3004308013C0319C22C01
:1009F0004308023C0319C92C4308033C0319D02CBB
:100A00004308043C0319D72C4308053C0319DE2C8A
:100A10004308063C0319E52C4308073C0319EC2C5A
:100A20000800AF000630B0000310AF0CB00B142D5F
:100A30002F080800AF000630B0000310AF0DB00B58
:100A40001D2D2F0808002A085C02031D672D2808A9
:100A50005D02031D672D29085E02031D672DC20874
:100A6000031D0800C20AFB3097279D27C000FC30F9
:100A700097279D27C1002B08A7002508A600A70BD4
:100A8000422D452D1E30A6073F2D26080310260DAA
:100A900097279D2711250339AE0087142E080319C7
:100AA000692D2E08013C0319702D2E08023C0319F4
:100AB000772D2E08033C0319852DEE26AC25143026
:100AC000B8008A150A12B4228A0164000800C20123
:100AD00008000714D7234008FF260710EA235D2DDE
:100AE0000714D7234108FF260710EA235D2D0714BA
:100AF000D7234008FF260710EA23EE260714D72342
:100B00004008FF260710EA235D2D0714D72340086D
:100B1000FF260710EA23EE260714D7234008FF26F6
:100B20000710EA23EE260714D7234008FF260710F4
:100B3000EA235D2DBE080319AA2D6400D426BE0346
:100B40000319AA2D0520031C9D2DCA0027204A0841
:100B50000F3908000F30080083168810881108111B
:100B6000880183121730F1258B26503CF039031988
:100B70000800D22608118811881050262030E1255F
:100B80002030E125C030E125C62650260030E12581
:100B9000D030E125C62650260030E1251030E12571
:100BA000DA2650260030E1256030E125DA2672266B
:100BB0005026F925A726ED251730F12555300626B4
:100BC0000800F039CC0008080F394C078800881558
:100BD000B726881108000630012E8030012EC03063
:100BE000012E8038012EC038012E0830012E0F3022
:100BF000012E0C30012E2830CD0050264D088814CF
:100C00000B2ECD0050264D0888100B2ECD005026FF
:100C10004D0888141426CD00E1254D0EE125881CD1
:100C2000DA26C62650080800CC00F13C031D1B2E16
:100C3000EE30CC00282E4C08D13C031D222EEE3085
:100C4000CC00282E4C08BA3C031D282EDF30CC00E7
:100C50004C0808001030312E0130312E0230312E78
:100C60000330CE0020300626CE0B322E0800D000F6
:100C7000CF00F039031D412E20300626432ED00030
:100C8000CF004F0E44264F08D0000F39CE00093C4C
:100C9000031C4D2E4E08303E4F2E4E08373E062E7A
:100CA00051108818511488118810081583160816D9
:100CB0008816081788178312B7268815B726881153
:100CC000B7268815881B5D2E88110811B726831654
:100CD00008128812081388138312B7268810511837
:100CE0008814080050264030E1250030E125DA263E
:100CF000B8010E308A00380801268A01FC25B80A9E
:100D000030303802031D792E881050268030E125BE
:100D10000030E1250800881188140815831608168C
:100D20008816081788178312B7268815B72608086B
:100D3000CC0088110811B7268316081288120813F0
:100D400088138312B72688104C08F0390800013048
:100D5000CD0050268810CD00E1254D0EE125DA2684
:100D600050081730F12555300626ED250800000003
:100D70000000000000000000000008000000A43097
:100D8000CA2E00004030CA2E1F30CA2E00000E307E
:100D9000CA2E0530D200D20BCB2E0800C830DD2E73
:100DA0006430DD2E3230DD2E1430DD2E0A30DD2EA3
:100DB0000530DD2E0230DD2E0130D300F930D200B7
:100DC0000000D20BE02ED30BDE2E0800C830F12E2F
:100DD0006430F12E3230F12E1430F12E0A30F12E23
:100DE00005306400D4006430D300F930D200000034
:100DF000D20BF72ED30BF52ED40BF32E08000F39A0
:100E0000D500D50A6400EE26D50B022F0800831604
:100E100005128312051208008316051683120800B6
:100E20008316851183128511080083168515831298
:100E3000851D182F08000C271527BD260727BD265E
:100E40001027BD26080007271527BD260C27BD261D
:100E50000800D7000830D600D70D0318312F072718
:100E6000322F0C271527BD261027BD26D60B2C2F79
:100E70000C271527BD261027BD2608000830D600F0
:100E80000C2715270310051A0314D70D1027BD26AC
:100E9000D60B412F581C07271527BD261027BD2626
:100EA000570808001B27D030292707302927103082
:100EB00029272327080058101B27D0302927003066
:100EC000292723271B27D13029273E27DF003E274C
:100ED0007F39DE003E273F39DD003E27DC003E271C
:100EE000DB003E27DA0058143E27D90023270800EC
:100EF0000130DB000130DA00DC001230D900DD0106
:100F0000DE01DF011B27D0302927003029275F08A9
:100F100029275E0829275D0829275C0829275B08FF
:100F200029275A0829275908292723270800831227
:100F300003178D00831203130800831603178C1305
:100F40000C140C18A12F831203170C0803130800AC
:100F5000831203178C00831203130B08E00083161F
:100F600003178B138C130C1555308D00AA308D0090
:100F70008C148C18B92F0C110C12831203136008F7
:040F80008B000800DA
:10120000E100E2010A306102031C0F29E100E20A59
:101210000A306202031C0229E20003140800E20EF5
:10122000620861070310080000210F39303E0800F2
:101230000021F039E200620E303E08008A01A72644
:1012400050300626653006266430062669300626AC
:101250007230062620300626C223FD3097279D27B0
:10126000BF008A01F725EF253F18B8233F1CBD2397
:10127000EF255520A1000D3C01300319BF062108C0
:101280000E3C01300319BF0621080C3C031908006D
:101290008A150A1221080F3C031D31293F185629CF
:1012A0008A01FD3097273F08A82708008A01A72652
:1012B0004E30062620300626C223EF2509305D2059
:1012C000BA00BA0E2A30062609305D20BA072A3045
:1012D000062609305D20BB00BB0E2A3006260930E9
:1012E0005D20BB072A300626A726523006264E3040
:1012F000062620300626C223EF2509305D20BC00DB
:10130000BC0E2A30062609305D20BC072A3006268E
:1013100009305D20BD00BD0E2A30062609305D2053
:10132000BD072A3006268A150A123A083C02031D18
:10133000BF293B083D02031DBF298A01FE309727C4
:101340003A08A827FF3097273B08A827FD309727A2
:101350003F08A827A726C223EF2563300626613061
:1013600006266D3006266230062669300626613074
:1013700006266430062661300626552008008A01BC
:10138000A726C223203006266530062672300626A0
:10139000723006266F300626723006265520080069
:1013A0008A01A726F725FB3097279D27C000FC3030
:1013B00097279D27C10054300626433006263A3031
:1013C00006260830F3253F248A010330F125400822
:1013D000013E8A150A1200218A013F267330062633
:1013E0000330F1255520A1000D3C0319C00A210846
:1013F0000E3C0319C0030F30C0058A150A122108DC
:101400000F3C031DE4298A01A726543006264C30E0
:1014100006263A3006268A010330F1254108013EAE
:101420008A150A1200218A013F26733006260330EE
:10143000F1255520A1000D3C0319C10A21080E3CDD
:101440000319C1030F30C1058A150A1221080F3C88
:10145000031D0B2AFB308A01972740088A01A82721
:10146000FC308A01972741088A01A8270800C40197
:10147000C40A8A01A72644088A01F3243A300626C2
:101480008A01F130440797279D27AB0003190B24ED
:101490002B08031D44268A0155208A150A12A10033
:1014A0000D3C0319602221080E3C03196922210812
:1014B0000F3C03196F2221080C3C031D392A080038
:1014C000C40A083044020319662A0800C401C40A89
:1014D0000800C403031D08000730C40008008A0187
:1014E000F725A7264408F3243A300626AB0803194B
:1014F0000B242B08031D44260430F12555208A15A2
:101500000A12A1000D3C0319992221080E3C03196F
:101510009F2221080F3C031D6F2AF13044078A01E6
:1015200097272B088A01A8278A01F9258A150A120C
:101530000800AB0A05302B020319AB010800AB030E
:10154000FF302B02031D08000430AB000800DC0A4A
:1015500008305C020319AF2ADD01DE010800DC015E
:10156000DC0ADD01DE010800A501A50A0730C40080
:10157000C601F13044078A0197278A019D278A1501
:101580000A12C607C40BB92AB101C608031908001C
:10159000B2018A018A150A12C501FF30B500B600F2
:1015A000B7005C08AA00F1305C078A0197278A011E
:1015B0009D278A150A12AB00031DE02AA722CD2A17
:1015C000A501A50AB1012B08A7002508A600A70BB5
:1015D000EA2AED2A1E30A607E72A26080310260D60
:1015E0008A0197278A019D273F39A8000310260DFD
:1015F000013E8A0197278A019D278A150A12AD00AC
:101600007F39A900AD1F2E2B5D082802B3005E08AC
:101610002902B4003408330703192E2BB308031929
:10162000202B350833020319192B03182E2BFF30FA
:10163000B7003708290203182E2B2908B7002A2BD8
:101640005E082902031C2E2B3608340203182E2BA9
:101650003408B6002508B1003308B500A50A1F30CC
:101660002502031DE32A3108A500B108031D3E2B06
:10167000B208031D3E2BB20ADD0ACD2A2B08A700B3
:101680002508A600A70B452B482B1E30A607422B8A
:1016900026080310260D8A0197278A019D27AE0090
:1016A0003F39A8000310260D013E8A0197278A01C1
:1016B0009D27AD007F39A9002E088A0111258A15C2
:1016C0000A12AE000830450203190800A508031DE0
:1016D0006C2BA722C50ACD2A5D082802B300031986
:1016E000782B3308D03C03180800A722C50ACD2A5E
:1016F0005E082902B4003408A03C03180800A722A1
:041700004514CD2A95
:0E1C02008207003400340034013407341C34EF
:101C10001C340F34003403340E34183403340334CA
:101C200000341F341E341E34063400341E341E3477
:101C300006341E340F340F340C340C340C340C3492
:101C40000C340F34003418340E34033400340034B0
:101C500000341F3400340034003410341C34073492
:041C600007341E34F3
:02400E00751F1C
:00000001FF
